S10D1040BD1209CE1285FF1292BD05
S10D104A124F4FB71295B71294BD70
S1111054115FC1012749BD1169C1012747BDC4
S11110621173C101274BB6129427E6B61295FE
S11110704CB7129516B7C000CE127CFF129238
S111107EBD124F84F044444444C40FBD10C559
S10E108CB71291BD123D17BD10C5B78F
S11010971291BD123DC619BD11F820B0F72D
S10E10A4129420B2CE1264FF1292BD21
S10F10AF124F20AE4FB71295B71294CE2A
S11110BB1285FF1292BD124F208E810A2C0363
S11110C98B3039800A8B413936B610268A8066
S11110D7B71026323936B61026847FB710269D
S11110E5323936B610008A20B7100032393680
S11110F3B610008A40B71000323936B610002D
S11111018A80B71000323936B6100084DFB78A
S111110F1000323936B6100084BFB71000321B
S111111D3936B61000847FB71000323936B66A
S111112B100084202705BD11083239BD10E7DD
S1111139323936B6100084402705BD1113323A
S111114739BD10F2323936B610008480270507
S1111155BD111E3239BD10FD323936B6100000
S111116384012716201836B610008402270CCB
S1111171200E36B61000840427022004C601A6
S110117F3239C600323936860237C601BD4A
S111118C11F832BD115F11272620F1368602BC
S111119A37C601BD11F832BD116911271420AA
S11111A8F136860237C601BD11F832BD11734F
S11111B611270220F13239BD11E0BD1185C1AF
S11111C4012710BD1197C101270CBD11A9C14F
S11111D201270820E9C60039C60139C60239D2
S11111E037BD1185C10026F9BD1197C1002647
S11111EEF2BD11A9C10026EB33393C36172798
S11111FC09CE08000926FD4A26F73238393696
S111120A3C8603B7102B8600B7102C860CB759
S1111218102D3832393CCE102E1F002004C693
S1111226013839C600383937BD121DC1002702
S1111234F9F6102FF712903339363CCE102EF7
S11112421F0080FCB61291B7102F38323936D7
S11112503CFE1292A6002709B71291BD123D72
S111125E0820F33832391B5B30313B30314805
S111126C41646469736F6E20426162636F6354
S111127A6B001B5B30333B303348001B5B3290
S10B12884A1B5B3F32356C0088
S9030000FC
