S10D1040CE0000BD10B0BD10DCCEE0
S111104A004DA604813A2418CE0046BD10B015
S10E1058CE004DBD10F9BD10D04CCEF1
S1111063004DA7047E10498630A7047C00507F
S1111071A603813A24037E10498630CE005037
S111107FA7007C004ECE004EA600813A24034A
S111108D7E10498630CE004EA7007C004DCE6A
S111109B004DA600813624037E10498630CE17
S11110A9004DA7007E1049363CA6002706081D
S11110B7BD10BF20F6383239363C18CE102F4B
S11010C5F6102E2AF718A7003832393CCE59
S11010D210000927037E10D43839363CCEB7
S11110DF80008638A700BD1125860CA700BD31
S11110ED11258601A700BD1125383239363C85
S11110FBA600270608BD111220F6CE8000863E
S111110902A700BD1125383239363C183C18B7
S1111117CE800118A700BD11251838383239D2
S10F11253CCE05000927037E112938394F
S11100001B5B324A1B5B31303B354854657341
S111000E74696E67206F6E652C2074776F2CFA
S111001C2074687265652121212E2E2E2E1B64
S111002A5B353B3548546573742050726F6724
S111003872616D2034202D2062792052520016
S11000461B5B31353B354830302E30300027
S9030000FC
