S10D1040BD145DBD15E0BD15B5BD7E
S111104A151BCE18F2C630BD159C0F8640B79C
S111105810208640B710224FB71975B71976CD
S1101066B71981FC100EF31600FD1018CC14
S10C1073162DFD193BBD14A3CE9A
S111107C1922C602BD14B8A602E603BD13C5B0
S110108A36373233BD13C5585858581BB7BC
S10C10971979CC1602FD193BBDC8
S11110A014A3CE1922C608BD14B8A6028030CF
S11110AE48484848B71972A6038030BA197230
S11110BCB71972A605803048484848B7197322
S11110CAA6068030BA1973B71973A6088030D1
S11110D848484848B71974A6098030BA1974FC
S11110E6B719748600B7193D8601B71977B79C
S10E10F41976B71978B719818623B765
S11110FF19808659B7197F8650B7197E86006E
S10F110DB7197D0E3EBD13F5BD1130BDB9
S10C1119118ABD11B1BD11F8BD2C
S10C11221269BD12A8BD1309BD38
S110112B14163E20E2B6197681012652B654
S1101138193D8100264B8601B7193D18CEE4
S11111451654CE194018A60081002707A700F3
S111115318080820F2B61972BD13D6A700E7DB
S111116101863AA702B61973BD13D6A703E799
S111116F04863AA705B61974BD13D6A706E781
S111117D076F087F1976CE1940FF193E39B668
S111118B193D8100271FB6102E848081002795
S111119916FE193EA600B7102F810027060887
S11111A7FF193E20044FB7193D39B619778160
S11011B501263FB6193D810026388603B798
S10E11C2193DCE166FFF193E8600B7E2
S11111CD19778600BD15808656BD15568669B5
S11111DBBD1556863ABD15568640BD15808654
S11111E956BD1556866FBD1556863ABD155671
S11111F739B6102E842081002767B6102F848D
S1111205DF81532711815227188155271D813F
S111121344272A815A2737398600B71979866D
S111122101B71978398601B71977B7197839EA
S111122FB6197981FF27324CB719798601B7B9
S111123D197839B61979810027214AB7197931
S111124B8601B71978398600B71980B7197F64
S1111259B7197EB7197DB7C0008601B7198199
S11112673939B6197881002737B6193D810050
S111127526308605B7193D18CE1666CE1940F0
S111128318A60081002707A70018080820F20B
S1111291B61979BD13D6A700E7014FA702B71F
S10D129F1978CE1940FF193E39BD3D
S11112A91437C1002753B6197D8199262C5F96
S11112B7F7197D8601B71981B6197E81592673
S11112C5245FF7197EB6197F815926215FF741
S11112D3197FB619808123261E5FF71980202B
S11012E1208B0119B7197D20188B0119B756
S11112EE197E20108B0119B7197F20088B017F
S11112FC19B719802000B6197DB7C00039B6A5
S111130A198181012652B6193D8100264B86B9
S111131801B7193D18CE165DCE194018A60077
S111132681002707A70018080820F2B61980D6
S1111334BD13D6A700E701863AA702B6197FBB
S1111342BD13D6A703E704863AA705B6197EA5
S1101350BD13D6A706E7076F087F1981CEED
S111135D1940FF193E398640B71023B61975A2
S111136B8199262C5FF719758601B71976B69D
S11113791974815926245FF71974B61973810B
S11113875926215FF71973B619728123261EA9
S11113955FF7197220208B0119B71975201803
S11113A38B0119B7197420108B0119B7197337
S11113B120088B0119B719722000FC1018F3E4
S11113BF1600FD10183B8140250781612506AC
S11113CD8057398030398037391644444444FF
S11113DB810A2C048B302004800A8B41C40F3D
S11113E9C10A2C03CB3039C00ACB413936B6C9
S11113F710008A20B71000323936B610008A72
S110140540B71000323936B610008A80B7A7
S11114121000323936B6100084DFB7100032F5
S11114203936B6100084BFB71000323936B624
S111142E1000847FB71000323936B6100084E7
S111143C012716201836B610008402270C2053
S111144A0E36B61000840427022004C60132B8
S111145839C6003239363C8603B7102B8600A5
S1101466B7102C860CB7102D3832393CCE4F
S1111473102E1F002004C6013839C600383977
S111148137BD1471C10027F9F6102FF7193981
S111148F3339363CCE102E1F0080FCB6193ABD
S111149DB7102F383239363CFE193BA6002713
S11114AB09B7193ABD14910820F338323918E4
S11114B93C3C37363C1838080818E700186F1A
S11114C701BD1481B61939810D273281082721
S11114D51718E10127EDA700B7193ABD1491CD
S11114E30818A6014C18A70120DB18A6012743
S11114F1D6094A18A7013CCE150CFF193BBDC5
S11114FF14A33820C46F003233381838391B58
S111150D5B441B5B4B0036B680002BFB32396F
S111151B36BD15138638B78000BD1513860C37
S1111529B78000BD15138606B78000BD1539C6
S11115373239BD1540BD154B3936BD1513862E
S110154501B78000323936BD15138602B798
S111155280003239BD1513B780013936861C6E
S1111560BD1513B780003239368618BD151339
S111156EB78000323936847F8A40BD1513B72A
S111157C80003239368A80BD1513B7800032E4
S111158A393C36A60081002706BD1556082000
S1111598F432383936373C8600BD1573C10075
S11115A627095AA600BD15560820F338333223
S11115B43936865CB710288638B710093239EC
S11115C23C36B7102AB610292AFBF7102AB6B9
S11115D010292AFBCE10081D00201C0020321A
S11115DE38393C3637CE10391C008003030325
S11115EC0303333238398600B71030B610309E
S11115FA2AFBB610343930001B5B324A1B5BEF
S111160848456E746572207468652074696DBF
S11116166520696E2048483A4D4D3A535320E2
S1111624666F726D61743A20001B5B324A1BC4
S11116325B48456E7465722074686520696EAD
S1111640697469616C206D6F746F7220737031
S111164E6565643A20001B5B31373B36334838
S111165C001B5B31373B333748001B5B3133D7
S111166A3B323748001B5B324A1B5B3F323574
S11116786C1B5B30323B3333484D6963726F39
S11116862044657369676E20321B5B30333B72
S11116943239485265616C2D74696D652050C1
S11116A2726F6772616D6D696E671B5B303429
S11116B03B33304842792041646469736F6EA5
S11116BE20426162636F636B1B5B30363B330B
S11116CC37484D656E751B5B30373B30354833
S11116DA2D2D2D2D2D2D2D2D2D2D2D2D2D2D88
S11116E82D2D2D2D2D2D2D2D2D2D2D2D2D2D7A
S11116F62D2D2D2D2D2D2D2D2D2D2D2D2D2D6C
S11117042D2D2D2D2D2D2D2D2D2D2D2D2D2D5D
S11117122D2D2D2D2D2D2D2D2D2D2D2D2D2D4F
S11117201B5B30383B30364853202E202E20E1
S111172E2E202E202E202E202E202E202E2087
S111173C2E202E202E202E202E202E202E2079
S111174A2E202E202E202E202E202E202E206B
S11117582E202E202E2053746F70207468658E
S1111766204D6F746F721B5B30393B30364878
S111177452202E202E202E202E202E202E201D
S11117822E202E202E202E202E202E202E2033
S11117902E202E202E202E202E202E202E2025
S111179E2E202E202E202E2052657061696EA2
S11117AC74207468652053637265656E1B5B60
S11117BA31303B30364855202E202E202E2074
S11117C82E202E202E202E202E202E202E20ED
S11117D62E202E202E202E202E202E202E20DF
S11117E42E202E202E202E202E202E20496E68
S11117F2637265617365204D6F746F722053CE
S1111800706565641B5B31313B303648442013
S111180E2E202E202E202E202E202E202E20A6
S111181C2E202E202E202E202E202E202E2098
S111182A2E202E202E202E202E202E202E208A
S11118382E202E204465637265617365204D79
S11118466F746F722053706565641B5B3132E2
S11118543B3036485A202E202E202E202E20E7
S11118622E202E202E202E202E202E202E2052
S11118702E202E202E202E202E202E202E2044
S111187E2E202E202E202E202E202E202E2036
S111188C2E5A65726F2070756D702074696D30
S111189A65721B5B31333B303648446573691D
S11118A8726564204D6F746F72205370656515
S11118B6643E1B5B31363B33374850756D7012
S11118C42054696D65721B5B31363B35394823
S11118D252544C2054696D65206F66204461A9
S11118E0791B5B31373B36334848483A4D4D4F
S11118EE3A53530000000000000000001010E8
S11118FC1010101010101818181818181818BA
S111190A1C1C1C1C1C1C1C1C1E1E1E1E1E1E37
S10D19181E1E1F1F1F1F1F1F1F1F8D
S1057FE613631F
S9030000FC
