S110C0008E0FFFBDC3CBBDC54EBDC523BD16
S111C00DC489CEC7F9C630BDC50A0F8640B738
S111C01B10208640B710224FB70053B70054D0
S110C029FC100EF3C56EFD1018CCC59BFD78
S10EC0360019BDC411CE0000C602BDFD
S111C041C426A602E603BDC35936373233BD0A
S111C04FC359585858581BB70057CCC570FD3C
S10EC05D0019BDC411CE0000C608BDD0
S111C068C426A602803048484848B70050A6B7
S111C076038030BA0050B70050A60580304851
S111C084484848B70051A6068030BA0051B7AC
S111C0920051A608803048484848B70052A61E
S111C0A0098030BA0052B700528600B7001B68
S111C0AE8601B70055B70054B700560E3EBDCC
S10CC0BCC389BDC0D9BDC133BD67
S10CC0C5C15ABDC1A1BDC1F7BD02
S10FC0CEC236BDC28EBDC3AA3E20E2B63D
S111C0DA005481012652B6001B8100264B86BD
S111C0E801B7001B18CEC5C2CE001E18A6005C
S111C0F681002707A70018080820F2B60050A2
S111C104BDC36AA700E701863AA702B6005140
S111C112BDC36AA703E704863AA705B6005228
S110C120BDC36AA706E7076F087F0054CE71
S111C12D001EFF001C39B6001B8100271FB640
S111C13B102E848081002716FE001CA600B77B
S111C149102F8100270608FF001C20044FB7AA
S111C157001B39B600558101263FB6001B813E
S111C1650026388603B7001BCEC5D4FF001C8D
S110C1738600B700558600BDC4EE8656BD9B
S111C180C4C48669BDC4C4863ABDC4C4864026
S111C18EBDC4EE8656BDC4C4866FBDC4C4864F
S111C19C3ABDC4C439B6102E84208100274C4D
S111C1AAB6102F84DF8153270D815227148194
S111C1B855271981442726398600B70057867B
S111C1C601B70056398601B70055B700563947
S111C1D4B6005781FF271B4CB700578601B7F2
S111C1E2005639B600578100270A4AB70057A5
S111C1F08601B700563939B60056810027374C
S111C1FEB6001B810026308605B7001B18CE44
S111C20CC5CBCE001E18A60081002707A70090
S111C21A18080820F2B60057BDC36AA700E753
S111C228014FA702B70056CE001EFF001C39BE
S10DC236BDC560B70058F60058B605
S10FC2400057445410B7005AB60058F1DF
S111C24C0057272E25022015B60059F6005A79
S111C25A1B2505B70059201C86FFB70059208C
S111C26815B60059F6005A102505B7005920E6
S111C276078600B700592000B600591644444C
S111C284444458585858BDC53039C600860089
S111C292BDC4C45CC10D270220F6B60058C618
S111C2A0413D8900CE00FF028F8603BDC4EE2F
S111C2AEC1052F098605BDC4C4C00520F317C1
S111C2BCBDC4C4C6008600BDC4C45CC10D2749
S111C2CA0220F6B60059C6413D8900CE00FFA1
S111C2D8028F8643BDC4EEC1052F098605BD45
S111C2E6C4C4C00520F317BDC4C4398640B7D4
S111C2F41023B600538199262C5FF700538661
S110C30201B70054B60052815926245FF79C
S111C30F0052B60051815926215FF70051B645
S111C31D00508123261E5FF7005020208B0164
S111C32B19B7005320188B0119B700522010C7
S111C3398B0119B7005120088B0119B7005071
S111C3472000FC1018F3C56EFD1018B600534C
S111C355B7C0003B8140250781612506805753
S111C363398030398037391644444444810A05
S111C3712C048B302004800A8B41C40FC10AB7
S111C37F2C03CB3039C00ACB413936B610003E
S111C38D8A20B71000323936B610008A40B745
S111C39B1000323936B610008A80B710003216
S111C3A93936B6100084DFB71000323936B6CC
S111C3B7100084BFB71000323936B61000846F
S111C3C57FB710003239363C8603B7102B8642
S111C3D300B7102C860CB7102D3832393CCE32
S111C3E1102E1F002004C6013839C60038395A
S111C3EF37BDC3DFC10027F9F6102FF7001782
S111C3FD3339363CCE102E1F0080FCB60018DB
S111C40BB7102F383239363CFE0019A6002730
S111C41909B70018BDC3FF0820F338323918E4
S111C4273C3C37363C1838080818E700186FFC
S111C43501BDC3EFB60017810D273281082721
S111C4431718E10127EDA700B70018BDC3FFCD
S111C4510818A6014C18A70120DB18A6012725
S111C45FD6094A18A7013CCEC47AFF0019BDC5
S111C46DC4113820C46F003233381838391B1C
S111C47B5B441B5B4B0036B680002BFB323952
S111C48936BDC4818638B78000BDC481860CE0
S111C497B78000BDC4818606B78000BDC4A76F
S111C4A53239BDC4AEBDC4B93936BDC48186BA
S110C4B301B78000323936BDC4818602B75E
S111C4C080003239BDC481B780013936861C34
S111C4CEBDC481B780003239368618BDC481E2
S111C4DCB78000323936847F8A40BDC481B7F0
S111C4EA80003239368A80BDC481B7800032AA
S111C4F8393C36A60081002706BDC4C40820C6
S111C506F432383936373C8600BDC4E1C1003A
S111C51427095AA600BDC4C40820F3383332E8
S111C5223936865CB710288638B710093239CE
S111C5303C36B7102AB610292AFBF7102AB69B
S111C53E10292AFBCE10081D00201C002032FC
S111C54C38393C3637CE10391C008003030307
S111C55A0303333238398600B71030B6103080
S111C5682AFBB610343930001B5B324A1B5BD1
S111C57648456E746572207468652074696DA2
S111C5846520696E2048483A4D4D3A535320C5
S111C592666F726D61743A20001B5B324A1BA7
S111C5A05B48456E7465722074686520696E90
S111C5AE697469616C206D6F746F7220737014
S111C5BC6565643A20001B5B31373B3633481B
S111C5CA001B5B31333B323748001B5B324AA7
S111C5D81B5B3F32356C1B5B30323B33334808
S111C5E64D6963726F2044657369676E20327D
S111C5F41B5B30333B3239485265616C2D7449
S111C602696D652050726F6772616D6D696EAF
S111C610671B5B30343B333048427920416471
S111C61E6469736F6E20426162636F636B1B0D
S111C62C5B30363B3337484D656E751B5B3013
S111C63A373B3035482D2D2D2D2D2D2D2D2D3A
S111C6482D2D2D2D2D2D2D2D2D2D2D2D2D2D6A
S111C6562D2D2D2D2D2D2D2D2D2D2D2D2D2D5C
S111C6642D2D2D2D2D2D2D2D2D2D2D2D2D2D4E
S111C6722D2D2D2D2D2D2D2D2D2D2D2D2D2D40
S111C6802D2D2D2D2D1B5B30383B30364853AD
S111C68E202E202E202E202E202E202E202E78
S111C69C202E202E202E202E202E202E202E6A
S111C6AA202E202E202E202E202E202E202E5C
S111C6B8202E202E202E202E202E2053746F94
S111C6C67020746865204D6F746F721B5B30BA
S111C6D4393B30364852202E202E202E202EA8
S111C6E2202E202E202E202E202E202E202E24
S111C6F0202E202E202E202E202E202E202E16
S111C6FE202E202E202E202E202E202E2052E4
S111C70C657061696E742074686520536372F1
S111C71A65656E1B5B31303B30364855202E72
S111C728202E202E202E202E202E202E202EDD
S111C736202E202E202E202E202E202E202ECF
S111C744202E202E202E202E202E202E202EC1
S111C752202E20496E637265617365204D6F61
S111C760746F722053706565641B5B31313B4E
S111C76E30364844202E202E202E202E202E41
S111C77C202E202E202E202E202E202E202E89
S111C78A202E202E202E202E202E202E202E7B
S111C798202E202E202E202E20446563726554
S111C7A6617365204D6F746F7220537065656A
S111C7B4641B5B31333B303648446573697255
S111C7C26564204D6F746F722053706565645A
S111C7D03E1B5B31363B35394852544C2054E5
S111C7DE696D65206F66204461791B5B3137FD
S111C7EC3B36334848483A4D4D3A535300000B
S111C7FA0000000000000010101010101010BD
S111C8081018181818181818181C1C1C1C1CC2
S111C8161C1C1C1E1E1E1E1E1E1E1E1F1F1F6F
S108C8241F1F1F1F1F70
S105FFFEC0003D
S105FFE6C2F162
S9030000FC
