S111C0008610B71035FC7FFE1A831040260C04
S110C00ECC4F4EFD7FFE8E7F6A7E1040B643
S111C01B10208A03B71020B6B7FF8105220655
S110C0298101250220028603B7102B4FB7BA
S111C036102C860CB7102DCED732B6102E2A41
S110C044FBA600270608B7102F20F14FB708
S10FC0517FBDB17FBD26F743B77FBDB1B2
S111C05D7FBD26EECED73DB6102E2AFBA600E0
S111C06B270608B7102F20F18E7FAC7F7FBC14
S111C079B6B7FF81052206810125022002864A
S111C08703B7102B4FB7102C860CB7102D4F9B
S111C095CE7FADC60CA700085A26FAFE7FFE29
S111C0A38C4F4E27288C10402723CE4F4EFF83
S10EC0B17FFECED765BDCBAF8601B784
S111C0BC7FBB7F7FBA4FC60ECE7FC0A70008A1
S110C0CA5A26FABDCAEDCED9D7BDCBAFBD05
S111C0D7CAED84DFCEC0E3C605BDCAA720446F
S10DC0E54D4F5257C0D0C0F5C2E71A
S10AC0EFC624C942CBBDCEFB
S10CC0F6DB45BDCBAFCE7FC2BD1A
S10CC0FFCBAFCEDBE0BDCBAFBD3D
S111C108CAED84DFCEC114C604BDCAA720440C
S10CC1164D491BC0F5C123C137DA
S10BC11FC218C0D0CEDC1FBD24
S10EC127CBAFCE7FC0860CB77FC0BD3D
S10CC132CAF87EC0F57F7FBCCE83
S111C13BDBF3BDCBAF0FBDCAED811B26037E27
S111C149C073815326F2BDCAED8139276D8182
S111C1573126E7CE7FCF4FA7048602A701BD95
S111C165CAEDA702BDCAEDA703BDC9F8800349
S111C173B77FBDCE7FCF4FA7068604A701BDC0
S111C181CAEDA702BDCAEDA703BDCAEDA7040F
S111C18FBDCAEDA705BDCA3B188FCE7FCF4FAA
S111C19DA7048602A701BDCAEDA702BDCAED24
S111C1ABA703BDC9F818A70018087A7FBD269F
S10EC1B9DFBDCAEDBDCAED7EC141CE62
S111C1C47FCF4FA7048602A701BDCAEDA702D4
S10FC1D2BDCAEDA703BDC9F8B77FBDBD11
S111C1DECAEDBDCAED7A7FBD26F5CE0002BDC6
S10CC1ECCA95CEDB45FF7FBECEEF
S111C1F5D732BDC8E5FC7FD01A833E35271231
S110C203CE000ABDCA95CEF0DCBDCBAFBDA8
S10CC210CAEDBDCAED7EC0737FC6
S10DC2197FBCCEDBF3BDCBAF0FBD3D
S111C223CAED811B26037EC073813A26F2CE3B
S111C2317FCF4FA7048602A701BDCAEDA70266
S10FC23FBDCAEDA703BDC9F8B77FBDCE92
S111C24B7FCF4FA7068604A701BDCAEDA70248
S111C259BDCAEDA703BDCAEDA704BDCAEDA77B
S111C26705BDCA3B188FCE7FCF4FA7048602B9
S110C275A701BDCAEDA702BDCAEDA703BD18
S111C282C9F84D262ACE7FCF4FA7048602A707
S111C29001BDCAEDA702BDCAEDA703BDC9F8E2
S111C29E18A70018087A7FBD26DFBDCAEDBDC3
S10CC2ACCAED7EC222BDCAEDBD3B
S10FC2B5CAEDCE0002BDCA95CEDB45FFE9
S10CC2C17FBECED732BDC8E5FCF6
S111C2CA7FD01A833E352712CE000ABDCA95D6
S10DC2D8CEF0DCBDCBAFBDCAEDBD56
S10CC2E2CAED7EC073CEDCAFBDD1
S110C2EBCBAFBDCAED84DFCEC2FAC605BDDF
S10FC2F8CAA7204445464D1BC2E7C30CF6
S109C304C3F3C44EC58B17
S10CC30AC0D0CEDD8CBDCBAFCE5A
S111C3137FCF8604A700BDCAF86D0126037E05
S111C321C2E7BDCA3B24078607BDCB6E20DDF4
S10DC32FCED751BDCBAFBDCA88BD07
S111C339CA888FBDCA8818CE00103CCED74CDF
S111C347BDCBAF383C8F3837BDCA8836862050
S10FC355BDCB6E32BDCAC4BDCB6E17BD9B
S10EC361CB6E32BDCAC4BDCB6E17BD4D
S10FC36CCB6E8609BDCB6E3CCED748BD1D
S110C378CBAF38C610A6000837BDCAC4BD3F
S111C385CB6E17BDCB6E8620BDCB6E33C109C7
S111C393260A8620BDCB6E8620BDCB6E5A26B0
S111C3A1DB8F8300108FC6108620BDCB6E8606
S111C3AF20BDCB6EA6000881202509817E22C8
S111C3BD05BDCB6E2005862EBDCB6E5A26E83C
S111C3CB180927037EC3433CCEDDEABDCBAF89
S110C3D938BDCAED81202707812D27077E7E
S111C3E6C0D08F7EC32F8F8302007EC32FCE64
S10CC3F4DE26BDCBAFCEDEC9BDCF
S111C3FDCBAFCE7FCF8604A700BDCAF8A60141
S111C40B26037EC0D081012619A60284DF819B
S111C4194E262A183C38088608BDCB6E3C32ED
S111C42733BDCBA22008BDCA3B2514373638DE
S111C4353C1838A600CEDEDBBDCBAFBDCB93EA
S10FC4437EC3F98607BDCB6E7EC3F3CE2A
S10EC44FDEE4BDCBAFBDCAED84DFCE40
S110C45AC461C603BDCAA72046431BC44EDF
S10AC467C46DC4F9C2E7CE65
S110C46EDF52BDCBAFCE7FCF8604A700BD4B
S111C47BCAF86D01260A7EC2E78607BDCB6EA5
S111C48920E2BDCA3B25F437361838CEDF94C6
S111C497BDCBAFCE7FCF8604A700BDCAF86D23
S111C4A501260A7EC44E8607BDCB6E20E2BD82
S10EC4B3CA3B25F4FD7FBECEDFCBBDED
S111C4BECBAFCE7FCF8602A700BDCAF86D01BA
S110C4CC260A7EC44E8607BDCB6E20E2BD5D
S111C4D9C9F825F4183C38BC7FBE2205A70024
S110C4E70820F6CEDFF4BDCBAFCE000ABDB9
S10CC4F4CA957EC0D0CEE006BD5D
S111C4FDCBAFCE7FCF8604A700BDCAF86D0179
S110C50B260A7EC2E78607BDCB6E20E2BD86
S111C518CA3B25F437361838CEE048BDCBAF09
S111C526CE7FCF8604A700BDCAF86D01260A99
S111C5347EC44E8607BDCB6E20E2BDCA3B25F9
S10EC542F4FD7FBECEE07FBDCBAFCE8A
S111C54D7FCF8604A700BDCAF86D01260A7EC2
S111C55BC44E8607BDCB6E20E2BDCA3B25F45C
S111C56937363818BC7FBE220A18A600180800
S111C577A7000820F0CEE0B6BDCBAFCE000A80
S10DC585BDCA957EC0D0CEE0C8BD4B
S10CC58FCBAFCEE171BDCBAFCE00
S111C5987FCF8604A700BDCAF8A601260A7E3E
S111C5A6C0D08607BDCB6E20DC81012619A60D
S111C5B40284DF814E26ED183C38088608BD4F
S111C5C2CB6E3C3233BDCBA22008BDCA3B2554
S110C5D0D73736383C3637A600BDCAC4CE76
S10DC5DDE17FBDCBAFBDCB6E17BDEF
S111C5E7CB6E3332383C1838CEE187BDCBAF73
S111C5F5CE7FCF8602A700BDCAF86D012610C6
S10FC6037EC2E78607BDCB6ECEE195BD7C
S110C60FCBAF20DCBDC9F825EE18A700CE86
S10CC61CE18FBDCBAF7EC591CEC8
S10EC625E19CBDCBAFBDCAED84DFCEAD
S110C630C637C605BDCAA720435645521B98
S109C63DC624C649C667CD
S10DC643C6BAC879C0D0CC0000FDCF
S111C64D7FFE0FCCC000FD7FFCB610398A08BA
S110C65BB7103907847F0601CF7EC073CE6F
S111C668E244BDCBAFFC7FFE1A834F4E260387
S10DC676CCC000CED74CBDCBAFBD45
S10CC680CBA2CED748BDCBAFCE4E
S110C689E24E18CE7FD4C61437C61B3ABD4E
S111C696CBAFC602183A18EC003CCED74CBD10
S10CC6A4CBAFBDCBA2CED748BD3B
S111C6ADCBAF38335A26DDBDCAED7EC0D0CEE9
S10EC6BBE485BDCBAFBDCAED84DFCE2B
S110C6C6C6CDC605BDCAA720454257531B6B
S109C6D3C6BAC6DFC73839
S10AC6D9C782C800C0D0CEE7
S110C6E0E531BDCBAFCE7FCF8604A700BDF2
S111C6EDCAF86D0126037EC6BABDCA3B2407F7
S111C6FB8607BDCB6E20DD8FB610398A40B79E
S111C70910398616B7103BA7008617B7103BF1
S111C7170FCE0001BDCA957F103BB6103984C9
S111C725BFB71039CEE5CABDCBAFCE0005BDFF
S10CC733CA957EC6BACEE59FBD8D
S111C73CCBAFBDCAED81592707817927037E53
S110C74AC6BAB610398A40B710398606B752
S111C757103BB7B6008607B7103B0FCE0001AB
S111C765BDCA957F103BB6103984BFB710399A
S110C773CEE5CABDCBAFCE000ABDCA957E8F
S10CC780C6BACEE568BDCBAFCE0C
S111C7897FCF8604A700BDCAF86D0126037E8B
S111C797C6BABDCA3B24078607BDCB6E20DDA3
S111C7A5188FCEE5DCBDCBAFCE7FCF8602A7CA
S111C7B300BDCAF86D01260A7EC6BA8607BD0F
S111C7C1CB6E20E2BDC9F825F4F61039CA404B
S111C7CFF71039C602F7103B18A7008603B70F
S110C7DD103B0FCE0001BDCA957F103BB686
S111C7EA103984BFB71039CEE5CABDCBAFCE2F
S10FC7F80005BDCA957EC6BACEE609BD98
S111C804CBAFBDCAED811B260A7EC07386072A
S111C812BDCB6E20E9813125F5813522F18000
S111C82030F61039CA40F71039C616F7103B2F
S110C82EB7B7FFC617F7103B0FCE0001BDD2
S111C83BCA957F103BF61039C4BFF71039C6FA
S111C84902F7103BB7B7FF8603B7103B0FCEC4
S111C8570001BDCA957F103BB6103984BFB7EF
S111C8651039CEE6D3BDCBAFCE0005BDCA95CB
S10DC873BDCAED7EC073CEE71DBD03
S111C87DCBAFCE7FCF8604A700BDCAF86D01F5
S111C88B26078607BDCB6E20E5BDCA3B2402FE
S111C89920F2188FCEE783BDCBAFCE7FCF86C3
S110C8A704A700BDCAF86D0126078607BD71
S111C8B4CB6E20E5BDCA3B240220F2FD7FBE00
S111C8C2183C38860ABDCB6EBDC8E5CEE7B57E
S10DC8D0BDCBAFFC7FD0BDCBA2CEE0
S10CC8DAE7E8BDCBAFBDCAED7E59
S111C8E3C07318CEF194CC0000FD7FD0860106
S110C8F1B77FBDA600B47FBD27028601F607
S111C8FE7FD1C47F183C183A18E6001838F7AA
S10FC90C7FCFB87FCFF67FD0595959F780
S10DC9187FCFB87FCF44797FD17937
S111C9227FD0747FBD25098601B17FBD270932
S111C93020C28680B77FBD20BBBC7FBE27031C
S111C93E0820B339CEE811BDCBAFBDCAED84DD
S110C94CDFCEC955C603BDCAA72050531B3A
S109C959C942C961C9A234
S10CC95FC0D0CEE873BDCBAFCE0D
S111C9687FCF8604A700BDCAF86D0126037EAA
S10EC976C0D0BDCA3B251ECEE8ADBDFD
S111C981CBAFCE0001BDCA95CE10403C183895
S111C98F8E7F6A7F7FBC3736CC000039860766
S10FC99DBDCB6E20BFCEE8CEBDCBAFCE2C
S111C9A97FCF8604A700BDCAF86D0126037E69
S10EC9B7C0D0BDCA3B2519CEE8ADBDC1
S111C9C2CBAF8E7F6ACEC9D13C3736CC000095
S111C9D039BDCAED7EC0D08607BDCB6E20C433
S111C9DE80308109230484DF8007C030C10942
S111C9EC2304C4DFC007484848481B393CA652
S111C9FA01810226390808A600272281302573
S111CA082F81392F0C84DF8141252581462F93
S111CA1609201F8030A7000820E18037A70008
S111CA240820DA0909A600080848484848090D
S111CA32AA00080C38390D38393CA6018104DD
S111CA4026430808A6002722813025398139B3
S111CA4E2F0C84DF8141252F81462F092029DA
S111CA5C8030A7000820E18037A7000820DA08
S111CA6A09090909A6004848484808AA000816
S111CA78E6000858585858EA00080C38390FE0
S111CA86383936860ABDCB6E860DBDCB6E32B6
S111CA94393C183C18CE37CD180926FC09266B
S111CAA2F51838383931313C18383A08183C48
S111CAB0183A18A100183827055A270320F059
S111CABE583AEE006E003C36CECADD165454D3
S111CACC54543AE60017CECADD33C40F3AE6DE
S111CADA00383930313233343536373839418B
S110CAE84243444546B6102E842027F9B67B
S111CAF5102F3936373C183CE60008083C1870
S111CB0338183A5FBDCAED811B2752810826FF
S111CB11135D27F2BDCB6E8620BDCB6E860869
S111CB1FBDCB6E5A20E2810D260F09E70008F7
S111CB2D3C3A6F0038183838333239812025ED
S111CB3B1D817E22193C3A183C1830CDAC0006
S111CB49183838270B3C3AA700385CBDCB6E79
S111CB5720AE8607BDCB6E20A75F09E700085D
S111CB653A6F0018383833323936B6102E2A9B
S110CB73FB32B7102F3936373C5F8620BDEA
S111CB80CB6E3C3AA60038BDCB935CC10526B3
S111CB8EEE383332393637BDCAC4BDCB6E170C
S111CB9CBDCB6E3332393637BDCB933236BD46
S111CBAACB93333239363CA6002705088DB6EE
S111CBB820F7383239B610208A03B7102086D1
S111CBC608B7100B7D7FBC264A8601B77FBCE2
S10DCBD4CED028FF7FF8CED0B1FFC9
S111CBDE7FF418CE7F6ACE1040860318081824
S111CBEC091809CDEF004A26F65F86021809E3
S111CBFA18E7004A26F886D0180918A7001874
S110CC080918FF7F6B200ABDCFD32008BDA3
S10ECC15CED42003BDCECE7F7FBA7FBB
S10CCC207FB9CEE976BDCBAFBDAE
S111CC29CAED84DFCECC35C60DBDCAA720509F
S111CC37585941424E53431B5254474DCC1999
S109CC45CC5FCC8ACCB5E3
S109CC4BCCE0CD0BCD3658
S109CC51CD5FCDF7C0D059
S109CC57CE53CE69CE6449
S10CCC5DCEBDCEEE7DBDCBAFCE01
S111CC667FCF8604A700BDCAF86D0126037EA9
S111CC74CC14BDCA3B24078607BDCB6E20DD61
S10FCC82FE7F6BED087ECC14CEEEA7BD47
S111CC8ECBAFCE7FCF8604A700BDCAF86D01E0
S110CC9C26037ECC14BDCA3B24078607BDC9
S110CCA9CB6E20DDFE7F6BED047ECC14CE3F
S110CCB6EE92BDCBAFCE7FCF8604A700BDAC
S111CCC3CAF86D0126037ECC14BDCA3B2407BB
S110CCD18607BDCB6E20DDFE7F6BED067E79
S10CCCDECC14CEEEBEBDCBAFCEEA
S111CCE77FCF8602A700BDCAF86D0126037E2A
S111CCF5CC14BDC9F824078607BDCB6E20DD24
S10FCD03FE7F6BA7037ECC14CEEED3BDE4
S111CD0FCBAFCE7FCF8602A700BDCAF86D0160
S110CD1D26037ECC14BDC9F824078607BD8B
S110CD2ACB6E20DDFE7F6BA7027ECC14CE05
S110CD37EEEABDCBAFCE7FCF8602A700BDD4
S111CD44CAF86D0126037ECC14BDC9F824077D
S111CD528607BDCB6E20DDB77FBB7ECC14CE32
S10ECD607FF8CCD028ED00CEE94ABDDE
S111CD6BCBAFBDCAED811B26037ECC0F8031F9
S111CD7916B77FBD810323078607BDCB6E204E
S111CD87DFCE7FAD583A1AEE0027138607BDA3
S10FCD95CB6ECEE99EBDCBAFCE000ABD34
S10ECDA1CA9520C2CEE90ABDCBAFCE7C
S111CDAC7FCF8604A700BDCAF86D0126037E62
S110CDBACC0FBDCA3B2523188FF67FBDCEDC
S111CDC77FB53A18A600A700864118A70018E9
S110CDD5A100260BCE7FAD583A1AEF007E68
S10ECDE2CC0F8607BDCB6ECEE9F6BD7A
S111CDEDCBAFCE0014BDCA9520AECE7FF8CCDD
S10ECDFBD028ED00CEE94ABDCBAFBD4F
S111CE06CAED811B26037ECC0F8031168103FA
S111CE1423078607BDCB6E20E2CE7FAD583AD1
S111CE221AEE0026138607BDCB6ECEE9CABDFC
S111CE30CBAFCE0014BDCA9520C554CE7FB53D
S111CE3E3AA60018A700CE7FAD18CE0000580B
S111CE4C3A1AEF007ECC0FCEEA28BDCBAFCE53
S110CE5A0001BDCA950FBE7F6B3B8639B742
S111CE677FB9FE7F6B1AEE0818A600814126E3
S111CE750FCEEFCEBDCBAFCE001EBDCA957E54
S111CE83CC198639B17FB9261418A100260FE8
S110CE91CEF09EBDCBAFCE000FBDCA957E86
S110CE9ECC190FC631FE100E3AFF101EB65F
S111CEAB102084FEB71020BE7F6B30A60084DA
S111CEB9BFA7003BB67FBBB77FBA27064AB7B8
S10ECEC77FBA209E7ECC1CCEEA45BD45
S10DCED2CBAF18FE7F6BCEED6DBDF3
S10FCEDCCBAF18EC08BDCBA2CEED78BDA6
S10DCEE8CBAF8FBDCB79CEEE07BDB2
S10FCEF2CBAFCDEE08BDD0F1CEED83BD7A
S110CEFECBAF183C38C6093A8FBDCBA2CE8D
S10DCF0BED8EBDCBAF8FBDCB79CE08
S10FCF15ED99BDCBAF18EC06BDCBA2CE4D
S10DCF21EDA4BDCBAF8FBDCB79CEDC
S10FCF2BEDAFBDCBAF18EC04BDCBA2CE23
S10DCF37EDBBBDCBAF8FBDCB79CEAF
S10FCF41EDD3BDCBAF18A602BDCB93CE40
S10FCF4DEDC7BDCBAF18A603BDCB93CE3F
S10CCF59EDFABDCBAFB67FBBBD00
S10FCF62CB93CEEDE0BDCBAF18A601BD13
S111CF6ECB93CEEDEDBDCBAF18A601444444E9
S110CF7C4424078631BDCB6E20058630BDF0
S111CF89CB6E8620BDCB6E18A6014444442412
S111CF97078631BDCB6E20058630BDCB6E867D
S111CFA520BDCB6E18A601444424078631BD7E
S111CFB3CB6E20058630BDCB6E8620BDCB6EC6
S111CFC118A6014424078631BDCB6E200586D8
S10FCFCF30BDCB6E18CE7FADCEEE19BD88
S111CFDBCBAF18EC00180818081A83000027C2
S111CFE903BDCBA2CEEE32BDCBAF18EC0018C8
S110CFF70818081A8300002703BDCBA2CE42
S111D004EE4BBDCBAF18EC00180818081A83C9
S111D01200002703BDCBA2CEEE64BDCBAF1849
S111D020EC002703BDCBA239B610208A03B75B
S110D02E10208608B7100BBF7F6B8601B77A
S111D03B7FBC3018308E7FAC18A600841026FF
S110D049090E3CCEF0C5BDCBAF38EC07CED0
S111D0567FAD188F4F1AAC00272008084C81BC
S111D06404270220F2CEEF01BDCBAF188FBD22
S10CD072CBA2CEEF5CBDCBAFBD37
S111D07BCAED7ECC196F006F01CE7FB5163A58
S111D089A60018A700CEEF7EBDCBAF178B31EB
S10FD097BDCB6ECEEF9ABDCBAF188FBDA1
S10CD0A3CBA2CEEFACBDCBAFBDB6
S111D0ACCAED7ECC19B610208A03B710208678
S111D0BA08B7100BBF7F6B18308E7FAC18A622
S111D0C800841026090E3CCEF0C5BDCBAF3857
S111D0D68601B77FBC7D7FBA27067A7FBA7EBB
S10ED0E4CE697D7FB927037ECE697EF4
S111D0EFCC14A600C6008118270A811A270552
S111D0FD81CD26045C5C5C08FF7FCFF77FD1F9
S111D10BA600B77FD208FF7FCF815F230F817C
S111D1198D270B818F270781CF27037ED1CE70
S111D127F67FD1C1022504BDD3AA39F67FD20A
S111D1355FBDD2C65D2604BDD3AA39B67FD233
S111D143818D2604C605200A818F270481CF22
S111D1512605C601BDD2C6F67FD3C101261A3B
S110D15FF67FD1C100270FB67FD2C602BDF6
S111D16CD2C65D2604BDD3AA39BDD2EB39F676
S111D17A7FD3C10526107D7FD12704BDD3AA23
S111D18839BDD2EBBDD32939F67FD3C11127AF
S111D19604C11026117D7FD12704BDD3AA3910
S10FD1A4BDD2EBBDD3802006BDD2EBBD94
S110D1B0D30C8620BDCB6EBDD3808620BD80
S111D1BDCB6EF67FD3C10D2704C1102603BD2F
S111D1CBD32939817F222CF67FD1C10225049D
S111D1D9BDD3AA39846F5FBDD2C65D2604BDE6
S111D1E7D3AA39BDD2EBB67FD284F081602684
S111D1F504BDD30C39BDD38D39818727048145
S111D203C72604BDD3AA3984CF5FBDD2C65D51
S111D2112604BDD3AA39B67FD284CF818D26E0
S111D21F04C6072016818F2604C607200E8140
S111D22DCF2604C60A20068183260CC608BD3F
S111D23BD2C65D2604BDD3AA39F67FD3C10343
S111D2492708C1072704C1082636B67FD28401
S111D257CF81832611F67FD1C102250AC60FAE
S111D265BDD2C6C608F77FD3F67FD1C101271C
S111D27304C103260DB67FD284B081A0270427
S111D281BDD3AA39BDD34339F67FD1C10127ED
S111D28F04C1022615B67FD284CFF67FD3C128
S110D29D092604C60B2002C60CBDD2C6F63D
S111D2AA7FD1C102250DB67FD284B081A027AA
S111D2B804BDD3AA39C608F77FD3BDD34339CA
S111D2C6CED3B3A10426115D2704E105260A88
S111D2D4E605F77FD3FF7FD45C3937C6063AF0
S111D2E2E600C1043326E05F39FE7FD4A600C7
S111D2F0BDCB6EA601BDCB6EA602BDCB6EA655
S111D2FE0381202705BDCB6E8620BDCB6E3983
S111D30CBDD380862CBDCB6EF67FD1C1012728
S111D31A04C1032604865920028658BDCB6E3A
S111D32839FE7FCFE60008FF7FCF5D2B033A6E
S111D3362004095C26FC3C3233BDCBA239BD79
S111D344D2EBB67FD284B08180261D8623BD35
S111D352CB6EBDD380F67FD3C108270139FE10
S111D3607FCFA600BDCB9308FF7FCF3981900D
S111D36E2604BDD3803981A02604BDD30C391A
S111D37CBDD38D39FE7FCFA600BDCB9308FF35
S111D38A7FCF39FE7FCFEC00BDCBA20808FF99
S111D3987FCF39496C6C6567616C204F706300
S111D3A66F6465003CCED39BBDCBAF383941DC
S111D3B44241201B01414258203A0141425996
S111D3C2203A0241444341890341444342C995
S111D3D003414444418B0341444442CB034196
S111D3DE444444C308414E44418403414E4438
S111D3EC42C40341534C20680441534C414851
S111D3FA0141534C42580141534C440501413A
S111D40853522067044153524147014153528D
S111D41642570142434320240542434C521D19
S111D4240E4243532025054245512027054260
S111D4324745202C05424754202E0542484908
S111D4402022054248532024054249544185C8
S111D44E0342495442C503424C45202F054277
S111D45C4C4F202505424C53202305424C54CE
S111D46A202D05424D49202B05424E4520261B
S111D4780542504C202A054252412020054214
S111D48652434C1F0D42524E20210542525378
S111D494451E0D425345541C0E425352208D2A
S111D4A20542564320280542565320290543CF
S111D4B04241201101434C43200C01434C49DE
S111D4BE200E01434C52206F04434C52414F48
S111D4CC01434C52425F01434C56200A014377
S111D4DA4D50418103434D5042C103434F4D19
S111D4E8206304434F4D414301434F4D4253D3
S111D4F60143504420830F435058208C0943B7
S111D5045059208C0B444141201901444543E9
S111D512206A04444543414A01444543425AB9
S111D520014445532034014445582009014478
S111D52E4559200902454F52418803454F528A
S111D53C42C803464449560301494449560275
S111D54A01494E43206C04494E43414C0149B3
S111D5584E43425C01494E53203101494E5866
S111D566200801494E592008024A4D50206EFB
S111D574044A5352208D074C44414186034C17
S111D582444142C6034C444420CC084C44535C
S111D590208E084C445820CE094C445920CE1D
S111D59E0B4C534C2068044C534C4148014C38
S111D5AC534C4258014C534C4405014C53520D
S111D5BA2064044C53524144014C53524254D9
S111D5C8014C53524404014D554C203D014E7C
S111D5D645472060044E45474140014E4547FD
S111D5E44250014E4F502001014F5241418AE6
S111D5F2034F524142CA035053484136015080
S111D6005348423701505348583C0150534898
S111D60E593C0250554C41320150554C4233A8
S111D61C0150554C58380150554C59380252A3
S111D62A4F4C206904524F4C414901524F4C61
S111D638425901524F52206604524F5241464D
S111D64601524F52425601525449203B0152A8
S111D6545453203901534241201001534243E4
S111D66241820353424342C203534543200D09
S111D67001534549200F01534556200B015329
S111D67E544141870753544142C70753544453
S111D68C20CD0753544F50CF01535453208FD9
S111D69A0753545820CF0A53545920CF0C5331
S111D6A8554241800353554242C0035355423C
S111D6B6448308535749203F01544142201633
S111D6C40154415020060154424120170154E4
S111D6D2504120070154455354000154535451
S111D6E0206D04545354414D01545354425D83
S111D6EE015453582030015453592030025433
S111D6FC5853203501545953203502574149E3
S111D70A203E01584744588F01584744598F18
S111D718024252534512104252434C13104227
S111D726534554141142434C521511045343FD
S111D73449202D204F4B0D0A0052414D202D4F
S111D742204F4B0D0A001B5B6D001B5B316D0D
S111D75000201B5B324A1B5B303B30481B5BE6
S111D75E6D001B5B376D001B5B324A1B5B3199
S111D76C6D1B5B33336D1B5B34366D1B5B3200
S111D77A3B32344820C9CDCDCDCDCDCDCDCD63
S111D788CDCDCDCDCDCDCDCDCDCDCDCDCDCD59
S111D796CDCDCDCDCDCDBB201B5B333B32348E
S111D7A44820BA20202020434F4D50555445B4
S111D7B25220454E47494E454552494E4720A8
S111D7C0202020BA201B5B34306D201B5B340C
S111D7CE366D1B5B343B32344820BA202020D9
S111D7DC202020202020544543484E4F4C4F1F
S111D7EA4759202020202020202020BA201B78
S111D7F85B34306D201B5B34366D1B5B353BA0
S111D80632344820BA20202020202020202068
S111D8144D6963726F313120452020202020A1
S111D8222020202020BA201B5B34306D201BF8
S111D8305B34366D1B5B363B32344820BA2025
S111D83E2020363848433131204D6F6E697416
S111D84C6F722050726F6772616D202020BAD7
S111D85A201B5B34306D201B5B34366D1B5B72
S111D868373B32344820C8CDCDCDCDCDCDCD0B
S111D876CDCDCDCDCDCDCDCDCDCDCDCDCDCD6A
S111D884CDCDCDCDCDCDCDBC201B5B34306DD4
S111D892201B5B383B3235482020202020200C
S111D8A02020202020202020202020202020B6
S111D8AE2020202020202020202020201B5B72
S111D8BC6D1B5B31313B333548577269747410
S111D8CA656E2062793A1B5B31323B33324883
S111D8D84772616E7420502E20426561747494
S111D8E669651B5B31333B3237484D6F646913
S111D8F4666965642062793A204D6172632092
S111D902416E646572736F6E1B5B31353B338F
S111D9103348204D61792020382C20323030ED
S111D91E331B5B31373B3334485665727369F3
S111D92C6F6E20322E30301B5B376D1B5B316B
S111D93A393B333448436F70797269676874FF
S111D94820313939361B5B32303B33304820F6
S111D956416C6C2052696768747320526573CB
S111D96465727665641B5B6D1B5B32323B3172
S111D972374857686174207368616C6C2069D3
S111D980742070726F6669742061206D616E90
S111D98E206966206865206761696E657468AB
S111D99C206120686967681B5B32333B3139B8
S111D9AA486C6576656C206C616E677561670C
S111D9B8652C20627574206C6F736520736992
S111D9C6676874206F662068697320636F645D
S111D9D4653F00201B5B324A1B5B6D1B5B3101
S111D9E26D1B5B376D1B5B323B323548434F88
S111D9F04D505554455220454E47494E45452D
S111D9FE52494E4720544543484E4F4C4F4724
S111DA0C591B5B6D1B5B316D1B5B353B32346C
S111DA1A484D6963726F3131202D2036384833
S111DA28433131204D6F6E69746F722050725D
S111DA366F6772616D1B5B373B3335484D6182
S111DA44696E204D656E751B5B31303B3232CE
S111DA5248441B5B6D6F776E6C6F6164094D09
S111DA606F746F726F6C61206F7220496E7468
S111DA6E656C204865782046696C651B5B3149
S111DA7C6D1B5B31313B3232484D1B5B6D65D7
S111DA8A6D6F72790944756D702C20457861BA
S111DA986D696E652C2046696C6C2C204D6FF8
S111DAA6646966791B5B316D1B5B31323B3268
S111DAB432484F1B5B6D7074696F6E730943CB
S111DAC26F6C6420426F6F742C205665637481
S111DAD06F72732C20526F6D20546573741B9B
S111DADE5B316D1B5B31333B323248521B5BB4
S111DAEC6D756E0950726F6772616D206F72F6
S111DAFA20537562726F7574696E651B5B3123
S111DB086D1B5B31343B323248571B5B6D6939
S111DB166E646F770954726163652F42726505
S111DB24616B706F696E742057696E646F7761
S111DB321B5B31373B33354853656C656374B8
S111DB40696F6E3F001B5B373B3333481B5B42
S111DB4E4A1B5B6D1B5B316D446F776E6C6F11
S111DB5C6164204D656E751B5B31303B3235C4
S111DB6A484D1B5B6D6F746F726F6C612053BE
S111DB782D5265636F72641B5B316D1B5B3154
S111DB86323B323548491B5B6D6E74656C2072
S111DB944865782046696C651B5B31343B3272
S111DBA235481B5B316D441B5B6D6566617518
S111DBB06C7420446F776E6C6F61642046695C
S111DBBE6C65204E616D651B5B31353B323961
S111DBCC4843757272656E742066696C656EEE
S111DBDA616D653A20001B5B31383B333548E2
S111DBE853656C656374696F6E3F001B5B319F
S111DBF6383B3239481B5B4B1B5B316D484397
S111DC0431312057616974696E6720666F7252
S111DC122046696C65202E2E2E1B5B6D001BB8
S111DC205B31303B3235481B5B4A1B5B3133B2
S111DC2E3B32354850726F636F6D6D206C6F22
S111DC3C6F6B73206F6E2074686520736372C3
S111DC4A65656E20666F7220746578741B5BCE
S111DC5831343B323548746F2075736520619A
S111DC667320612066696C656E616D652E1B0E
S111DC745B31363B3235485573652074686564
S111DC8220666F726D2046494C454E414D455B
S111DC902E455854203A1B5B376D202020206F
S111DC9E20202020202020201B5B31363B3527
S111DCAC3248001B5B373B3333481B5B4A1B7B
S111DCBA5B6D1B5B316D204D656D6F727920C3
S111DCC84D656E751B5B31303B323548441B95
S111DCD65B6D756D7009202020446973706CBD
S111DCE46179204D656D6F727920426C6F631B
S111DCF26B1B5B316D1B5B31313B323548459A
S111DD001B5B6D78616D696E650920202049FA
S111DD0E6E646976696475616C204C6F6361A4
S111DD1C74696F6E731B5B316D1B5B31323BA0
S111DD2A323548461B5B6D696C6C2F436F707D
S111DD387920204D656D6F727920426C6F6307
S111DD466B1B5B316D1B5B31333B3235484D3B
S111DD541B5B6D6F64696679092020204D65A4
S111DD626D6F72792F52656769737465722054
S111DD704C6F636174696F6E731B5B31373BDC
S111DD7E33354853656C656374696F6E3F00FE
S111DD8C1B5B31303B3235481B5B4A1B5B6D21
S111DD9A1B5B31323B333048446973706C615B
S111DDA879204D656D6F727920426C6F636B4C
S111DDB61B5B31343B323748456E7465722076
S111DDC45374617274696E6720416464726501
S111DDD273733A201B5B6D1B5B376D202020A2
S111DDE0201B5B31343B353148000A0D0A0D1F
S111DDEE0953504143453D6E657874207061C1
S111DDFC67652C204D494E55533D7072657677
S111DE0A20706167652C20616E79206F74684A
S111DE186572206B65792065786974732E003D
S111DE261B5B31303B3235481B5B6D1B5B4A86
S111DE341B5B31323B3238484578616D696EB4
S111DE426520496E646976696475616C204CD4
S111DE506F636174696F6E731B5B31343B3218
S111DE5E38483C414444524553533E202E2E36
S111DE6C2E20666F72207370656369666963A9
S111DE7A206C6F636174696F6E1B5B31353B06
S111DE883238483C4E3E3C5245543E202E2E2D
S111DE962E2E20666F72206E657874206164F3
S111DEA464726573731B5B31363B3238483C45
S111DEB252455455524E3E202E2E2E2E2074D4
S111DEC06F20657869740D0A000D0A1B5B6DF6
S111DECE090909416464726573733A200009FE
S111DEDC56616C75653A20001B5B373B33338F
S111DEEA481B5B4A1B5B6D1B5B316D46696C0C
S111DEF86C2F436F7079204D656E751B5B3186
S111DF06303B333248461B5B6D696C6C204D1A
S111DF14656D6F727920426C6F636B1B5B311D
S111DF226D1B5B31313B333248431B5B6D6F2B
S111DF307079204D656D6F727920426C6F63BD
S111DF3E6B1B5B31353B33354853656C6563B3
S111DF4C74696F6E3F001B5B31313B3332480A
S111DF5A1B5B4B1B5B31353B3237481B5B6D49
S111DF68456E746572205374617274696E673D
S111DF7620416464726573733A201B5B6D1B5B
S111DF845B376D202020201B5B31353B35318F
S111DF9248001B5B6D1B5B31363B3237484544
S111DFA06E74657220456E64696E672041647C
S111DFAE64726573733A2020201B5B6D1B5B4D
S111DFBC376D202020201B5B31363B35314869
S111DFCA001B5B6D1B5B31373B3237484669E9
S111DFD86C6C2056616C75653A201B5B6D1BEA
S111DFE65B376D20201B5B31373B333948001D
S111DFF41B5B31393B3338481B5B316D446F86
S111E0026E6521001B5B31303B3332481B5BE3
S111E0104B1B5B31353B3237481B5B6D456E55
S111E01E746572205374617274696E672041D8
S111E02C6464726573733A201B5B6D1B5B3773
S111E03A6D202020201B5B31353B3531480022
S111E0481B5B6D1B5B31363B323748456E74F3
S111E056657220456E64696E672041646472D1
S111E0646573733A2020201B5B6D1B5B376DC8
S111E072202020201B5B31363B353148001B3B
S111E0805B6D1B5B31373B323748456E746570
S111E08E722054617267657420416464726587
S111E09C73733A2020201B5B6D1B5B376D20D5
S111E0AA2020201B5B31373B353148001B5BC7
S111E0B831393B3338481B5B316D446F6E6564
S111E0C621001B5B31303B3235481B5B6D1B68
S111E0D45B4A1B5B31323B3238484D6F646946
S111E0E26679204D656D6F72792F52656769FE
S111E0F073746572204C6F636174696F6E28DF
S111E0FE73291B5B31343B3238483C414444A7
S111E10C524553533E202E2E2E20666F722055
S111E11A7370656369666963206C6F6361747A
S111E128696F6E1B5B31353B3238483C4E3E0E
S111E1363C5245543E202E2E2E2E20666F7233
S111E144206E65787420616464726573731BC9
S111E1525B31363B3238483C52455455524EF0
S111E1603E202E2E2E2E20746F2065786974BA
S111E16E0D0A000D0A09094164647265737399
S111E17C3A2000094F6C64203A2000094E65D9
S111E18A77203A200009446F6E65000D0909E4
S111E198090909001B5B373B3334481B5B4A03
S111E1A61B5B6D1B5B316D4F7074696F6E7384
S111E1B4204D656E751B5B31313B33334843A0
S111E1C21B5B6D6F6C642052657365741B5B90
S111E1D06D1B5B31323B3333481B5B316D56A4
S111E1DE1B5B6D6563746F7220446973706C13
S111E1EC61791B5B6D1B5B31333B3333481B86
S111E1FA5B316D451B5B6D4550524F4D204F00
S111E2087065726174696F6E731B5B6D1B5BD6
S111E21631343B3333481B5B316D521B5B6D5F
S111E2246F6D20546573742028435243291BE8
S111E2325B31373B33354853656C6563746963
S111E2406F6E3F001B5B31313B3330481B5B7C
S111E24E4B1B5B31333B3332481B5B4A52455A
S111E25C534554202837464645293A20000DE4
S111E26A0A0953434920496E74657272757037
S111E2787420202837464436293A20002020FE
S111E2860953504920496E74657272757074A4
S111E29420202837464438293A20000D0A0974
S111E2A250756C736520492F502045646765E4
S111E2B0202837464441293A200020200950F6
S111E2BE756C7365204F766572666C6F772001
S111E2CC2837464443293A20000D0A095469B4
S111E2DA6D6572204F766572666C6F77202832
S111E2E837464445293A20002020094F2F5084
S111E2F620436F6D706172652035202028373B
S111E304464530293A20000D0A094F2F5020BB
S111E312436F6D7061726520342020283746F9
S111E3204532293A20002020094F2F50204377
S111E32E6F6D706172652033202028374645DC
S111E33C34293A20000D0A094F2F5020436F58
S111E34A6D70617265203220202837464536FA
S111E358293A20002020094F2F5020436F6DDA
S111E366706172652031202028374645382921
S111E3743A20000D0A09492F502043617074AD
S111E382757265203320202837464541293A1C
S111E3902000202009492F502043617074752D
S111E39E7265203220202837464543293A2054
S111E3AC000D0A09492F5020436170747572E8
S111E3BA65203120202837464545293A2000A9
S111E3C82020095265616C2054696D6520495E
S111E3D66E7420202837464630293A20000D68
S111E3E40A0949525120496E746572727570AF
S111E3F27420202837464632293A2000202085
S111E400095849525120496E74657272757044
S111E40E74202837464634293A20000D0A09A6
S111E41C53574920496E7465727275707420EE
S111E42A202837464636293A2000202009498A
S111E4386C6C6567616C204F70636F646520C7
S111E4462837464638293A20000D0A09434F6C
S111E45450205761746368646F67202020288D
S111E46237464641293A2000202009436C6FBA
S111E470636B204D6F6E69746F722020283725
S111E47E464643293A20001B5B373B333348A4
S111E48C1B5B4A1B5B6D1B5B316D20454550CD
S111E49A524F4D204D656E751B5B31313B3387
S111E4A83148451B5B6D72617365204545501C
S111E4B6524F4D20627974651B5B316D1B5B08
S111E4C431323B333148421B5B6D756C6B206B
S111E4D2457261736520454550524F4D1B5BEA
S111E4E0316D1B5B31333B333148571B5B6D91
S111E4EE7269746520454550524F4D20627985
S111E4FC74651B5B316D1B5B31343B3331485F
S111E50A531B5B6D6574205343492062617599
S111E5186420726174651B5B31373B333548F8
S111E52653656C656374696F6E3F001B5B3157
S111E534373B3235481B5B6D456E74657220B3
S111E5424164647265737320746F2045524106
S111E55053453A201B5B6D1B5B376D2020206A
S111E55E201B5B31373B343948001B5B3137DF
S111E56C3B3235481B5B6D456E746572204171
S111E57A64647265737320746F2057524954A1
S111E588453A201B5B6D1B5B376D2020202065
S111E5961B5B31373B343948001B5B31373B8C
S111E5A43235481B5B6D42554C4B20455241AD
S111E5B2534520616C6C20353132206279743F
S111E5C065732028592F4E293F001B5B323112
S111E5CE3B3338481B5B316D446F6E65210092
S111E5DC1B5B6D1B5B31393B33304856616C61
S111E5EA756520746F2057726974653A201BA2
S111E5F85B6D1B5B376D20201B5B31393B34A0
S111E6063648001B5B373B3331481B5B4A1B15
S111E6145B6D1B5B316D53434920426175649D
S111E6222052617465204D656E751B5B3131AD
S111E6303B333248311B5B6D202E2E2E2033DF
S111E63E382E34206B626175641B5B316D1BDA
S111E64C5B31323B333248321B5B6D202E2E85
S111E65A2E2031392E32206B626175641B5BF9
S111E668316D1B5B31333B333248331B5B6D2A
S111E676202E2E2E203936303020626175643D
S111E6841B5B316D1B5B31343B333248341B5E
S111E6925B6D202E2E2E203438303020626135
S111E6A075641B5B316D1B5B31353B333248B7
S111E6AE351B5B6D202E2E2E20323430302092
S111E6BC626175641B5B31373B33354853652F
S111E6CA6C656374696F6E3F001B5B32313BFD
S111E6D83338481B5B316D446F6E65211B5B4C
S111E6E632333B31374841646A7573742050F7
S111E6F4432062617564207261746520616E5A
S111E702642068697420616E79206B6579204B
S111E710746F20636F6E74696E75652E001B46
S111E71E5B373B3236481B5B4A1B5B6D1B5B53
S111E72C316D1B5B373B323648202020437989
S111E73A636C696320526564756E64616E637E
S111E7487920436865636B1B5B6D1B5B31308E
S111E7563B323748456E74657220537461720D
S111E76474696E6720416464726573733A20B1
S111E7721B5B376D202020201B5B31303B35B4
S111E7803148001B5B6D1B5B31323B32374866
S111E78E456E74657220456E64696E672041A5
S111E79C6464726573733A201B5B376D202032
S111E7AA20201B5B31323B343948001B5B6D71
S111E7B81B5B31343B3237484550524F4D20E5
S111E7C643524320436865636B73756D20698D
S111E7D4733A201B5B376D202020201B5B3125
S111E7E2343B353048001B5B6D1B5B316D1BF7
S111E7F05B32303B32374850726573732061E0
S111E7FE6E79206B657920746F20636F6E74E2
S111E80C696E7565001B5B373B3333481B5B3D
S111E81A4A1B5B6D1B5B316D20202052756E16
S111E828204D656E751B5B31303B3334485018
S111E8361B5B6D726F6772616D2052756E1BF5
S111E8445B316D1B5B31313B333448531B5B3E
S111E8526D7562726F7574696E652052756E15
S111E8601B5B31353B33354853656C6563747F
S111E86E696F6E3F001B5B31353B3237481B30
S111E87C5B4B1B5B6D456E74657220537461BB
S111E88A7274696E6720416464726573733A38
S111E898201B5B6D1B5B376D202020201B5B5B
S111E8A631353B353148001B5B31353B323692
S111E8B4481B5B4B1B5B6D2020202020202086
S111E8C220202052756E6E696E6721001B5B6C
S111E8D031353B3236481B5B4B1B5B6D456E8E
S111E8DE74657220537562726F7574696E658D
S111E8EC20416464726573733A201B5B6D1BDC
S111E8FA5B376D202020201B5B31353B35320F
S111E90848001B5B32333B3235481B5B4B1B14
S111E9165B6D456E7465722053657420427209
S111E92465616B706F696E7420416464726586
S111E93273733A201B5B6D1B5B376D20202036
S111E940201B5B32333B353548001B5B323302
S111E94E3B3235481B5B316D205768696368A6
S111E95C20427265616B706F696E743F2028F3
S111E96A312C322C332C34291B5B6D001B5BCB
S111E97832333B3235481B5B4B1B5B6D1B5B24
S111E98632333B3335481B5B316D53656C6592
S111E9946374696F6E3F1B5B6D001B5B323357
S111E9A23B3235481B5B4B1B5B316D20202044
S111E9B0205468617420425020616C726561CD
S111E9BE64792075736564211B5B6D001B5B1F
S111E9CC32333B3235481B5B4B1B5B316D20F5
S111E9DA20205468617420425020616C7265E4
S111E9E861647920636C656172211B5B6D00B4
S111E9F61B5B6D1B5B32333B3235481B5B4BA6
S111EA041B5B316D2020202020202043616EFA
S111EA122774207365742061204250207468BC
S111EA20657265211B5B6D001B5B32333B335B
S111EA2E35481B5B4B1B5B316D2052756E6EC1
S111EA3C696E67211B5B6D20001B5B324A1B59
S111EA4A5B323B3239481B5B6D1B5B316D2A1E
S111EA58203638484331312043505520574969
S111EA664E444F57202A1B5B353B3548504326
S111EA743D1B5B353B3133483E1B5B373B3566
S111EA824820533D1B5B373B3133483E1B5B42
S111EA90393B354820593D1B5B393B31334837
S111EA9E3E1B5B31303B354820583D1B5B313D
S111EAAC303B3133483E1B5B31333B35484130
S111EABA3D1B5B31333B3132483D421B5B3127
S111EAC8323B3232484E205A205620431B5B0C
S111EAD631333B3135484343523D20203D1B34
S111EAE45B6D1B5B353B3335481B5B316D505E
S111EAF22C592C582C412C421B5B6D202E2ECF
S111EB002E2E2E2E2E204D6F64696679204332
S111EB0E5055205265676973746572731B5B02
S111EB1C363B3335481B5B316D541B5B6D205B
S111EB2A2E2E2E2E2E2E2E2E2E2E2E2E2E2E55
S111EB382E205472616365204F6E6520496E75
S111EB46737472756374696F6E1B5B373B33B7
S111EB5435481B5B316D471B5B6D202E2E2E4A
S111EB622E2E2E2E2E2E2E2E2E2E2E2E204712
S111EB706F20746F206E657874205254531B0E
S111EB7E5B383B3335481B5B316D521B5B6DBE
S111EB8C202E2E2E2E2E2E2E2E2E2E2E2E2E01
S111EB9A2E2E2052756E2050726F6772616DC0
S111EBA82066726F6D2050431B5B393B333582
S111EBB6481B5B316D4573631B5B6D202E2E77
S111EBC42E2E2E2E2E2E2E2E2E2E2E20457868
S111EBD2697420746F204D61696E204D656E6C
S111EBE0751B5B31313B3335481B5B316D4E89
S111EBEE1B5B6D202E2E2E2E2E2E2E2E2E2E46
S111EBFC2E2E2E2E2E20536574204D756C7413
S111EC0A69706C65205472616365204E756DEF
S111EC186265721B5B31323B3335481B5B3146
S111EC266D4D1B5B6D202E2E2E2E2E2E2E2EAF
S111EC342E2E2E2E2E2E2E20457865637574FE
S111EC4265204D756C7469706C6520547261A8
S111EC5063651B5B31333B3335481B5B376D0B
S111EC5E20201B5B6D202E2E204375727265E4
S111EC6C6E74204D756C7469706C6520547262
S111EC7A61636520436F756E742028686578A9
S111EC88291B5B31363B3239481B5B6D1B5B2D
S111EC96316D2A20425245414B504F494E5495
S111ECA42057494E444F57202A1B5B6D1B5BC3
S111ECB231383B3548427265616B706F696E94
S111ECC0742023313D1B5B376D202020201B68
S111ECCE5B6D1B5B31393B3548427265616BEF
S111ECDC706F696E742023323D1B5B376D2010
S111ECEA2020201B5B6D1B5B31393B3335480A
S111ECF81B5B316D431B5B6D6C6561722042CA
S111ED067265616B706F696E741B5B32303B1B
S111ED143548427265616B706F696E7420231E
S111ED22333D1B5B376D202020201B5B6D1BD7
S111ED305B32303B3335481B5B316D531B5B4C
S111ED3E6D657420427265616B706F696E744E
S111ED4C1B5B32313B3548427265616B706F60
S111ED5A696E742023343D1B5B376D2020202E
S111ED68201B5B6D001B5B353B38481B5B3783
S111ED766D001B5B353B3134481B5B6D001B8D
S111ED845B373B38481B5B376D001B5B373B2E
S111ED923134481B5B6D001B5B393B38481B5A
S111EDA05B376D001B5B393B3134481B5B6DE8
S111EDAE001B5B31303B38481B5B376D001B8C
S111EDBC5B31303B3134481B5B6D001B5B3117
S111EDCA333B37481B5B376D001B5B31333B1B
S111EDD83130481B5B376D001B5B31333B3120
S111EDE639481B5B376D001B5B31333B323207
S111EDF4481B5B376D001B5B31333B333548E6
S111EE021B5B376D001B5B343B3135481B5BDB
S111EE104B1B5B343B313548001B5B31383BF8
S111EE1E3139481B5B376D202020201B5B31EF
S111EE2C383B313948001B5B31393B313948E2
S111EE3A1B5B376D202020201B5B31393B31E0
S111EE483948001B5B32303B3139481B5B37C5
S111EE566D202020201B5B32303B31394800F8
S111EE641B5B32313B3139481B5B376D20207C
S111EE7220201B5B32313B313948001B5B35DD
S111EE803B38481B5B376D202020201B5B3580
S111EE8E3B3848001B5B393B38481B5B376D33
S111EE9C202020201B5B393B3848001B5B31D3
S111EEAA303B38481B5B376D202020201B5B5B
S111EEB831303B3848001B5B31333B37481B7D
S111EEC65B376D20201B5B31333B3748001B4C
S111EED45B31333B3130481B5B376D20201B14
S111EEE25B31333B313048001B5B31333B3333
S111EEF035481B5B376D20201B5B31333B33F1
S111EEFE3548001B5B32323B3239481B5B4BFC
S111EF0C1B5B356D1B5B316D2A2A2A2A2A2ACB
S111EF1A205741524E494E4721202A2A2A2AC6
S111EF282A2A1B5B6D1B5B316D1B5B32333B76
S111EF3632324820494C4C4547414C2042524F
S111EF4445414B504F494E54204F52204F50E0
S111EF52434F44452041543A20001B5B3234A7
S111EF603B323748507265737320616E79201E
S111EF6E6B657920746F20636F6E74696E7525
S111EF7C65001B5B32333B3234481B5B4B1B7E
S111EF8A5B316D425245414B504F494E54206D
S111EF98230020454E434F554E5445524544E8
S111EFA62041543A20001B5B32343B32374882
S111EFB4507265737320616E79206B6579204D
S111EFC2746F20636F6E74696E7565001B5B5F
S111EFD032333B3234481B5B4B1B5B316D20EC
S111EFDE43616E277420747261636520746849
S111EFEC726F75676820425245414B504F4981
S111EFFA4E54211B5B6D001B5B32323B3234E4
S111F008481B5B4B1B5B316D2020464154417D
S111F0164C204552524F52202D20535441435A
S111F0244B20425245414348211B5B32333B93
S111F03238482046616D6F7573204368696E1F
S111F0406573652050726F766572623A2048DF
S111F04E652077686F205053482773206F7237
S111F05C204A53522773206D7573742050554B
S111F06A4C206F72205254532E201B5B323404
S111F0783B323448536F727279202D2050724F
S111F08665737320616E79206B657920746F59
S111F0942072657365742E2E2E001B5B3233C2
S111F0A23B3238481B5B4B1B5B316D45786578
S111F0B0637574696F6E2068616C746564200A
S111F0BE617420525453001B5B313B373548BC
S111F0CC1B5B4B1B5B316D496E7473211B5B28
S111F0DA6D001B5B324A1B5B6D1B5B303B30D1
S111F0E8480D0A486D6D6D2E20204C6574276E
S111F0F673207365652E2020596F752776658B
S111F104206265656E206861636B696E67202A
S111F1124D6963726F31312E0D0A416E642017
S111F120796F75206A75737420646F776E6C56
S111F12E6F6164656420612066696C652E2043
S111F13C204D6179626520746861740D0A6467
S111F14A6F776E6C6F616465642066696C6536
S111F1582069736E277420736F20696E7461D2
S111F1666374206569746865722E2E2E210D67
S111F1740A0D0A507265737320616E79206B68
S111F182657920746F2072657475726E207446
S111F1906F203F000000010100000101010199
S111F19E000001010000000001010000010159
S111F1AC010100000101000001010000010149
S111F1BA00000000010100000101010100003D
S111F1C801010000000001010000010100002F
S111F1D601010000010101010000010100001F
S111F1E4000001010000010101010000010111
S111F1F2000001010000010100000000010105
S111F2000000010101010000010100000000F6
S111F20E010100000101FE7FD66E00FE7FD8D4
S110F21C6E00FE7FDA6E00FE7FDC6E00FEE9
S111F2297FDE6E00FE7FE06E00FE7FE26E0070
S111F237FE7FE46E00FE7FE66E00FE7FE86E52
S111F24500FE7FEA6E00FE7FEC6E00FE7FEEA0
S110F2536E00FE7FF06E00FE7FF26E00FE86
S111F2607FF46E00FE7FF66E00FE7FF86E00F7
S10DF26EFE7FFA6E00FE7FFC6E00C6
S111FE0030EC09CE7FAD188F4F1AAC002717D7
S110FE0E08084C8104270220F2CEFE54BDEA
S111FE1BCBAF188FBDCBA27EFE4D6F006F01E2
S111FE29CE7FB5163AA60018A700CEFE92BDF5
S10FFE37CBAF178B31BDCB6ECEFEA1BD4E
S10EFE43CBAF188FBDCBA27EFE4DCECE
S111FE4EFEB3BDCBAF390A0D2A2A2A2A2A2A6E
S111FE5C205741524E494E4721202A2A2A2A75
S111FE6A2A2A0A0D52554E4157415920425240
S111FE7845414B504F494E5420454E434F5583
S111FE864E54455245442041543A20000A0D82
S111FE94425245414B504F494E54202300200A
S111FEA2454E434F554E54455245442041545D
S111FEB03A20000A0D205461736B09537461EB
S111FEBE74650943432041202042202058202F
S111FECC2020205920202020532020202050C8
S108FEDA430A0D2000A5
S109FFD6F214F219F21E00
S109FFDCF223F228F22DCD
S109FFE2F232F237F23C9A
S109FFE8F241F246F24B67
S109FFEEF250F255F25A34
S109FFF4F25FF264F26901
S109FFFAF26EF273C00078
S9030000FC
